:020000040800F2
:1000000000C0002091740008591300085B13000819
:100010005D1300085F130008611300080000000072
:1000200000000000000000000000000061730008F4
:100030006313000800000000C17300080574000885
:10004000D9740008D9740008D9740008D97400085C
:10005000D9740008D9740008D9740008D97400084C
:10006000D9740008D974000865130008D974000811
:10007000D9740008D9740008D9740008D97400082C
:10008000D9740008D9740008D9740008D97400081C
:10009000D9740008D9740008D9740008D97400080C
:1000A000D9740008D9740008D9740008D9740008FC
:1000B000D9740008D9740008D9740008D9740008EC
:1000C000D9740008D9740008D9740008D9740008DC
:1000D000D97400086D130008D9740008D974000899
:1000E000D9740008D9740008D9740008D9740008BC
:1000F000D9740008D9740008D9740008D9740008AC
:10010000D9740008D9740008D9740008D97400089B
:10011000D9740008D9740008D9740008D97400088B
:10012000D9740008D9740008D9740008D97400087B
:1001300000000000000000000000000000000000BF
:1001400000000000000000000000000000000000AF
:10015000000000000000000000000000000000009F
:10016000000000000000000000000000000000008F
:10017000000000000000000000000000000000007F
:10018000000000000000000000000000000000006F
:10019000000000000000000000000000000000005F
:1001A000000000000000000000000000000000004F
:1001B000000000000000000000000000000000003F
:1001C000000000000000000000000000000000002F
:1001D000000000000000000000000000000000001F
:0401E0005FF8E0F1F3
:1001F00081F0004102E000BF83F0004330B54FEAD8
:1002000041044FEA430594EA050F08BF90EA020F44
:100210001FBF54EA000C55EA020C7FEA645C7FEAD7
:10022000655C00F0E2804FEA5454D4EB5555B8BFFA
:100230006D420CDD2C4480EA020281EA030382EA6B
:10024000000083EA010180EA020281EA0303362DFD
:1002500088BF30BD11F0004F4FEA01314FF4801CD0
:100260004CEA113102D0404261EB410113F0004FE2
:100270004FEA03334CEA133302D0524263EB430399
:1002800094EA050F00F0A780A4F10104D5F1200E37
:100290000DDB02FA0EFC22FA05F2801841F1000192
:1002A00003FA0EF2801843FA05F359410EE0A5F166
:1002B00020050EF1200E012A03FA0EFC28BF4CF097
:1002C000020C43FA05F3C01851EBE37101F000454D
:1002D00007D54FF0000EDCF1000C7EEB00006EEB5A
:1002E0000101B1F5801F1BD3B1F5001F0CD34908E4
:1002F0005FEA30004FEA3C0C04F101044FEA44523B
:1003000012F5800F80F09A80BCF1004F08BF5FEAC1
:10031000500C50F1000041EB045141EA050130BDA1
:100320005FEA4C0C404141EB0101013C28BFB1F5B3
:10033000801FE9D291F0000F04BF01460020B1FAFE
:1003400081F308BF2033A3F10B03B3F120020CDAD1
:100350000C3208DD02F1140CC2F10C0201FA0CF0AF
:1003600021FA02F10CE002F11402D8BFC2F1200C14
:1003700001FA02F120FA0CFCDCBF41EA0C019040CA
:10038000E41AA2BF01EB0451294330BD6FEA040413
:100390001F3C1CDA0C340EDC04F11404C4F12002FE
:1003A00020FA04F001FA02F340EA030021FA04F310
:1003B00045EA030130BDC4F10C04C4F1200220FA67
:1003C00002F001FA04F340EA0300294630BD21FAA5
:1003D00004F0294630BD94F0000F83F4801306BF6B
:1003E00081F480110134013D4EE77FEA645C18BF5F
:1003F0007FEA655C29D094EA050F08BF90EA020FF6
:1004000005D054EA000C04BF1946104630BD91EAED
:10041000030F1EBF0021002030BD5FEA545C05D1F0
:100420004000494128BF41F0004130BD14F580042F
:100430003CBF01F5801130BD01F0004545F0FE41A3
:1004400041F470014FF0000030BD7FEA645C1ABFD8
:10045000194610467FEA655C1CBF0B46024650EA0F
:10046000013406BF52EA033591EA030F41F400213B
:1004700030BD00BF90F0000F04BF0021704730B5C1
:100480004FF4806404F132044FF000054FF0000196
:1004900050E700BF90F0000F04BF0021704730B557
:1004A0004FF4806404F1320410F0004548BF40422C
:1004B0004FF000013EE700BF42004FEAE2014FEA81
:1004C00031014FEA02701FBF12F07F4393F07F4F5C
:1004D00081F06051704732F07F4208BF704793F05F
:1004E0007F4F04BF41F40021704730B54FF4607472
:1004F00001F0004521F000411CE700BF50EA010275
:1005000008BF704730B54FF000050AE050EA01021D
:1005100008BF704730B511F0004502D5404261EB8D
:1005200041014FF4806404F132045FEA915C3FF4CE
:10053000D8AE4FF003025FEADC0C18BF03325FEA6B
:10054000DC0C18BF033202EBDC02C2F1200300FA1C
:1005500003FC20FA02F001FA03FE40EA0E0021FA41
:1005600002F11444BDE600BF80F0004002E000BF8D
:1005700081F0004142001FBF5FEA410392EA030F8E
:100580007FEA226C7FEA236C6AD04FEA1262D2EBD8
:100590001363C1BFD218414048404140B8BF5B42DD
:1005A000192B88BF704710F0004F40F4000020F076
:1005B0007F4018BF404211F0004F41F4000121F08C
:1005C0007F4118BF494292EA030F3FD0A2F10102D6
:1005D00041FA03FC10EB0C00C3F1200301FA03F114
:1005E00000F0004302D5494260EB4000B0F5000F37
:1005F00013D3B0F1807F06D340084FEA310102F1F6
:100600000102FE2A51D2B1F1004F40EBC25008BFA7
:1006100020F0010040EA03007047490040EB000071
:10062000013A28BFB0F5000FEDD2B0FA80FCACF172
:10063000080CB2EB0C0200FA0CF0AABF00EBC2509F
:1006400052421843BCBFD0401843704792F0000F8D
:1006500081F4000106BF80F400000132013BB5E7E0
:100660004FEA41037FEA226C18BF7FEA236C21D056
:1006700092EA030F04D092F0000F08BF08467047BB
:1006800090EA010F1CBF0020704712F07F4F04D189
:10069000400028BF40F00040704712F100723CBF9C
:1006A00000F50000704700F0004343F0FE4040F4C6
:1006B000000070477FEA226216BF08467FEA236384
:1006C0000146420206BF5FEA412390EA010F40F46F
:1006D000800070474FF0000304E000BF10F00043BB
:1006E00048BF40425FEA000C08BF704743F09643A2
:1006F00001464FF000001CE050EA010208BF7047BD
:100700004FF000030AE000BF50EA010208BF704743
:1007100011F0004302D5404261EB41015FEA010C58
:1007200002BF84460146002043F0B64308BFA3F150
:100730008053A3F50003BCFA8CF2083AA3EBC25332
:1007400010DB01FA02FC634400FA02FCC2F1200251
:10075000BCF1004F20FA02F243EB020008BF20F088
:100760000100704702F1200201FA02FCC2F12002EE
:1007700050EA4C0021FA02F243EB020008BF20EAE3
:10078000DC7070474FF0FF0C1CEAD0521EBF1CEA11
:10079000D15392EA0C0F93EA0C0F6FD01A4480EAFF
:1007A000010C400218BF5FEA41211ED04FF00063E8
:1007B00043EA501043EA5111A0FB01310CF0004014
:1007C000B1F5000F3EBF490041EAD3715B0040EA3A
:1007D000010062F17F02FD2A1DD8B3F1004F40EB0A
:1007E000C25008BF20F00100704790F0000F0CF0DD
:1007F000004C08BF49024CEA502040EA51207F3AA1
:10080000C2BFD2F1FF0340EAC250704740F400007B
:100810004FF00003013A5DDC12F1190FDCBF00F06C
:1008200000407047C2F10002410021FA02F1C2F11A
:10083000200200FA02FC5FEA310040F1000053EAB6
:100840004C0308BF20EADC70704792F0000F00F004
:10085000004C02BF400010F4000F013AF9D040EA0A
:100860000C0093F0000F01F0004C02BF490011F49E
:10087000000F013BF9D041EA0C018FE70CEAD1539C
:1008800092EA0C0F18BF93EA0C0F0AD030F0004C1C
:1008900018BF31F0004CD8D180EA010000F00040D0
:1008A000704790F0000F17BF90F0004F084691F08E
:1008B000000F91F0004F14D092EA0C0F01D14202C8
:1008C0000FD193EA0C0F03D14B0218BF084608D191
:1008D00080EA010000F0004040F0FE4040F40000DB
:1008E000704740F0FE4040F4400070474FF0FF0C6E
:1008F0001CEAD0521EBF1CEAD15392EA0C0F93EAB5
:100900000C0F69D0A2EB030280EA010C49024FEA06
:10091000402037D04FF0805343EA111143EA1013BF
:100920000CF000408B4238BF5B0042F17D024FF477
:10093000000C8B4224BF5B1A40EA0C00B3EB510F52
:1009400024BFA3EB510340EA5C00B3EB910F24BF3B
:10095000A3EB910340EA9C00B3EBD10F24BFA3EBC0
:10096000D10340EADC001B0118BF5FEA1C1CE0D188
:10097000FD2A3FF650AF8B4240EBC25008BF20F03B
:10098000010070470CF0004C4CEA50207F32C2BF8F
:10099000D2F1FF0340EAC250704740F400004FF02C
:1009A0000003013A37E792F0000F00F0004C02BF5D
:1009B000400010F4000F013AF9D040EA0C0093F027
:1009C000000F01F0004C02BF490011F4000F013B81
:1009D000F9D041EA0C0195E70CEAD15392EA0C0FE9
:1009E00008D142027FF47DAF93EA0C0F7FF470AF21
:1009F000084676E793EA0C0F04D14B023FF44CAF64
:100A000008466EE730F0004C18BF31F0004CCAD1F8
:100A100030F000427FF45CAF31F000437FF43CAF34
:100A20005FE700BF4FF0FF3C06E000BF4FF0010C56
:100A300002E000BF4FF0010C4DF804CD4FEA400238
:100A40004FEA41037FEA226C18BF7FEA236C11D082
:100A500001B052EA530C18BF90EA010F58BFB2EB35
:100A6000030088BFC81738BF6FEAE17018BF40F0B5
:100A7000010070477FEA226C02D15FEA402C05D169
:100A80007FEA236CE4D15FEA412CE1D05DF8040BEE
:100A9000704700BF844608466146FFE70FB5FFF781
:100AA000C9FF002848BF10F1000F0FBD4DF808ED39
:100AB000FFF7F4FF0CBF012000205DF808FB00BF2A
:100AC0004DF808EDFFF7EAFF34BF012000205DF884
:100AD00008FB00BF4DF808EDFFF7E0FF94BF0120D1
:100AE00000205DF808FB00BF4DF808EDFFF7D2FFCE
:100AF00094BF012000205DF808FB00BF4DF808ED11
:100B0000FFF7C8FF34BF012000205DF808FB00BFDD
:100B10004FEA40024FEA41037FEA226C02D15FEACA
:100B2000402C08D17FEA236C02D15FEA412C02D12C
:100B30004FF0000070474FF0010070474FEA40024D
:100B4000B2F1FE4F0FD34FF09E03B3EB12620DD9FB
:100B50004FEA002343F0004310F0004F23FA02F065
:100B600018BF404270474FF00000704712F1610F0C
:100B700001D1420205D110F0004008BF6FF00040E3
:100B800070474FF00000704742000ED2B2F1FE4FA6
:100B90000BD34FF09E03B3EB126209D44FEA00234C
:100BA00043F0004323FA02F070474FF00000704713
:100BB00012F1610F01D1420202D14FF0FF307047B4
:100BC0004FF00000704700BF10F8012B11F8013BF7
:100BD000012A28BF9A42F7D0D01A7047034613F86B
:100BE000012B002AFBD1181A0138704770B54FF05D
:100BF000FF0C4CF4E06C1CEA11541DBF1CEA1355A9
:100C000094EA0C0F95EA0C0F00F0DEF82C4481EA10
:100C1000030621EA4C5123EA4C5350EA013518BF30
:100C200052EA033541F4801143F4801338D0A0FB1D
:100C300002CE4FF00005E1FB02E506F00042E0FBCA
:100C400003E54FF00006E1FB03569CF0000F18BFD0
:100C50004EF0010EA4F1FF04B6F5007F64F5407478
:100C600004D25FEA4E0E6D4146EB060642EAC6210B
:100C700041EA55514FEAC52040EA5E504FEACE2E78
:100C8000B4F1FD0C88BFBCF5E06F1ED8BEF1004F7B
:100C900008BF5FEA500E50F1000041EB045170BDF7
:100CA00006F0004646EA010140EA020081EA03013B
:100CB000B4EB5C04C2BFD4EB0C0541EA045170BD37
:100CC00041F480114FF0000E013C00F3AB8014F1B1
:100CD000360FDEBF002001F0004170BDC4F10004FA
:100CE000203C35DA0C341BDC04F11404C4F120057B
:100CF00000FA05F320FA04F001FA05F240EA0200D6
:100D000001F0004221F0004110EBD37021FA04F60B
:100D100042EB06015EEA430E08BF20EAD37070BDC5
:100D2000C4F10C04C4F1200500FA04F320FA05F024
:100D300001FA04F240EA020001F0004110EBD37026
:100D400041F100015EEA430E08BF20EAD37070BD96
:100D5000C4F1200500FA05F24EEA020E20FA04F36F
:100D600001FA05F243EA020321FA04F001F000411E
:100D700021FA04F220EA020000EBD3705EEA430E8F
:100D800008BF20EAD37070BD94F0000F0FD101F0BE
:100D90000046400041EB010111F4801F08BF013CF7
:100DA000F7D041EA060195F0000F18BF704703F035
:100DB0000046520043EB030313F4801F08BF013DBC
:100DC000F7D043EA0603704794EA0C0F0CEA135578
:100DD00018BF95EA0C0F0CD050EA410618BF52EA32
:100DE0004306D1D181EA030101F000414FF0000038
:100DF00070BD50EA410606BF1046194652EA430646
:100E000019D094EA0C0F02D150EA013613D195EAB9
:100E10000C0F05D152EA03361CBF104619460AD101
:100E200081EA030101F0004141F0FE4141F470010B
:100E30004FF0000070BD41F0FE4141F4780170BDFB
:100E400070B54FF0FF0C4CF4E06C1CEA11541DBF60
:100E50001CEA135594EA0C0F95EA0C0F00F0A7F862
:100E6000A4EB050481EA030E52EA03354FEA01318F
:100E700000F088804FEA03334FF0805545EA1313A2
:100E800043EA12634FEA022245EA111545EA10656A
:100E90004FEA00260EF000419D4208BF964244F101
:100EA000FD0404F5407402D25B084FEA3202B61A20
:100EB00065EB03055B084FEA32024FF480104FF4F4
:100EC000002CB6EB020E75EB030E22BFB61A754668
:100ED00040EA0C005B084FEA3202B6EB020E75EBFB
:100EE000030E22BFB61A754640EA5C005B084FEA63
:100EF0003202B6EB020E75EB030E22BFB61A754630
:100F000040EA9C005B084FEA3202B6EB020E75EB3A
:100F1000030E22BFB61A754640EADC0055EA060EFB
:100F200018D04FEA051545EA16754FEA06164FEA3E
:100F3000C30343EA52734FEAC2025FEA1C1CC0D1EA
:100F400011F4801F0BD141EA00014FF000004FF077
:100F5000004CB6E711F4801F04BF01430020B4F138
:100F6000FD0C88BFBCF5E06F3FF6AFAEB5EB030CF0
:100F700004BFB6EB020C5FEA500C50F1000041EBED
:100F8000045170BD0EF0004E4EEA113114EB5C04BA
:100F9000C2BFD4EB0C0541EA045170BD41F480118D
:100FA0004FF0000E013C90E645EA060E8DE60CEA95
:100FB000135594EA0C0F08BF95EA0C0F3FF43BAFB2
:100FC00094EA0C0F0AD150EA01347FF434AF95EA69
:100FD0000C0F7FF425AF104619462CE795EA0C0F4D
:100FE00006D152EA03353FF4FDAE1046194622E71A
:100FF00050EA410618BF52EA43067FF4C5AE50EAF4
:1010000041047FF40DAF52EA43057FF4EBAE12E7E3
:101010004FF0FF3C06E000BF4FF0010C02E000BFC4
:101020004FF0010C4DF804CD4FEA410C7FEA6C5CA7
:101030004FEA430C18BF7FEA6C5C1BD001B050EA4A
:10104000410C0CBF52EA430C91EA030F02BF90EA35
:10105000020F0020704710F1000F91EA030F58BFF4
:10106000994208BF90422CBFD8176FEAE37040F056
:10107000010070474FEA410C7FEA6C5C02D150EAF4
:10108000013C07D14FEA430C7FEA6C5CD6D152EAAF
:10109000033CD3D05DF8040B704700BF8446104674
:1010A00062468C461946634600E000BF01B5FFF773
:1010B000B7FF002848BF10F1000F01BD4DF808ED43
:1010C000FFF7F4FF0CBF012000205DF808FB00BF14
:1010D0004DF808EDFFF7EAFF34BF012000205DF86E
:1010E00008FB00BF4DF808EDFFF7E0FF94BF0120BB
:1010F00000205DF808FB00BF4DF808EDFFF7CEFFBC
:1011000094BF012000205DF808FB00BF4DF808EDFA
:10111000FFF7C4FF34BF012000205DF808FB00BFCB
:101120004FEA410C7FEA6C5C02D150EA013C0AD1E3
:101130004FEA430C7FEA6C5C02D152EA033C02D1D5
:101140004FF0000070474FF0010070474FEA410236
:1011500012F5001215D211D56FF47873B3EB625209
:1011600012D94FEAC12343F0004343EA505311F030
:10117000004F23FA02F018BF404270474FF00000C2
:10118000704750EA013005D111F0004008BF6FF000
:10119000004070474FF00000704700BF4A0011D276
:1011A00012F5001211D20DD56FF47873B3EB6252C1
:1011B0000ED44FEAC12343F0004343EA505323FACD
:1011C00002F070474FF00000704750EA013002D142
:1011D0004FF0FF3070474FF0000070474FEA410278
:1011E000B2F1E04324BFB3F5001CDCF1FE5C0DD985
:1011F00001F0004C4FEAC0024CEA5070B2F1004FCF
:1012000040EB830008BF20F00100704711F0804FD1
:1012100021D113F13872BCBF01F00040704741F496
:1012200080114FEA5252C2F11802C2F1200C10FA9A
:101230000CF320FA02F018BF40F001004FEAC1237E
:101240004FEAD32303FA0CFC40EA0C0023FA02F322
:101250004FEA4303CCE77FEA625307D150EA0133F8
:101260001EBF4FF0FE4040F44000704701F00040C8
:1012700040F0FE4040F40000704700BF0348044BBC
:10128000834202D0034B03B118477047D8010020B6
:10129000D8010020000000000548064B1B1AD90F9A
:1012A00001EBA301491002D0034B03B1184770476B
:1012B000D8010020D80100200000000010B5064C25
:1012C000237843B9FFF7DAFF044B13B10448AFF3B7
:1012D00000800123237010BDD80100200000000011
:1012E00074C7000808B5054B1BB105490548AFF3A5
:1012F0000080BDE80840FFF7CFBF00BF000000003E
:10130000DC01002074C7000808B502F077FA01F08C
:101310008DFC02F0C3FC01F0E9FC002008BD0000D8
:1013200007B572B602F09EFC064C4FF40051064819
:1013300003F097FB00230193019BA342F5D8019B87
:101340000133F8E71FA107000010014008B5FFF7BF
:10135000E7FF08B5FFF7E4FF7047FEE7FEE7FEE7AB
:10136000FEE77047102003F085BB0000014804F041
:10137000A7B900BFA403002003200B4B82B09A69D9
:1013800042F001029A619A6902F001020092009A09
:10139000DA6942F08052DA61DB6903F0805301932D
:1013A000019B02B003F072BB0010024010B504466E
:1013B00086B01022002102A808F030FC22680C4BF5
:1013C0009A4212D103F56C439A690A4842F004022A
:1013D0009A619B69042203F004030193019B032398
:1013E00002A9CDE9022303F051FA06B010BD00BFF7
:1013F000002401400008014010B586B004461022C8
:10140000002102A808F00AFC0123144A049323686F
:10141000934211D1124B13489A6902A942F0040277
:101420009A619B6903F004030093009BC02302931D
:1014300003F02CFA06B010BD0B4A9342FAD1084BC8
:101440000A489A6902A942F008029A619B6903F06E
:1014500008030193019BC0230293E9E700040040C5
:10146000001002400008014000080040000C01404C
:101470007FB500230293049302230321144A0393AC
:1014800003680591934213D1124B9A6942F004020A
:101490009A619B6903F004030093009B4FF48073EF
:1014A00002930D4802A903F0F1F907B05DF804FBBF
:1014B000B3F1804FF9D103F504339A6942F0040285
:1014C0009A619B69029103F004030193019BE8E791
:1014D000002C0140001002400008014010B50446F5
:1014E00086B01022002102A808F098FB2268124B57
:1014F0009A421FD103F558439A69104842F00402FA
:101500009A619B694FF4007203F004030193019BFD
:101510000223CDE90223032302A9059303F0B6F9C0
:101520004FF4806100230548CDE9021302A904931A
:1015300003F0ACF906B010BD0038014000080140CE
:10154000094A08B50346106808B9084810600849F8
:1015500003448B4206D908F0C5FB0C2303604FF00F
:10156000FF3008BD1360FCE7F4010020E0570020C5
:1015700000BC00201046704708B508F0B3FB0523F7
:1015800003604FF0FF3008BD4FF0FF3070474FF45D
:10159000005300204B6070470120704700207047C7
:1015A0000120704708B508F09DFB162303604FF03B
:1015B000FF3008BDFEE7000010B5044605F0E2FE6E
:1015C000034A13682343BDE81040136005F0EABEE8
:1015D000A002002010B5044605F0D4FE204650229B
:1015E000034908F0C2FBBDE8104005F0DBBE00BFB8
:1015F000D002002070B5144606460D4605F0C2FE26
:10160000094BA26A1E709A60E26A5D60DA60626AE3
:101610001A610522054B1A700022BDE870409A60DD
:101620005A6005F0BFBE00BFBC0200205803002076
:1016300038B505460C4605F0A5FE034B5D609C6081
:10164000BDE8384005F0AEBE5803002038B504466A
:1016500002F0A6FC054605F095FE0B490B4A0B78F7
:1016600042F8335002EBC30254600133084A03F0DE
:1016700007030B701378072B9CBF01331370BDE871
:10168000384005F08FBE00BF590200205C020020E8
:101690005802002010B505F075FE0023074A084CDB
:1016A0001370084A2370137000236360A36002F074
:1016B00077FCA063BDE8104005F074BEBC020020BA
:1016C00058030020F801002073B50D4E0D4D0E4C4F
:1016D00005F058FE01960095A369626921690B48DF
:1016E00001F08EFD01960095A369626921690848A1
:1016F00001F086FD02B0BDE8704005F053BE00BFAA
:101700000000A0420000C842D00200203C0300209C
:10171000200300202DE9F043002499B004F0D2FD0D
:101720002746224E019002AD02F036FB00223379AB
:1017300011462B71134680463068286028FA02F063
:10174000C00704D5A856013103441BB209B20132C7
:10175000052AF3D10029C8BF93FBF1F3DFF85090BD
:1017600004F10104C8BF5FB2E4B205F00BFE89F8D2
:10177000318089F8307005F015FE0A2C0DD104A8CF
:10178000FFF728FF119802F039FB044605F0FAFD37
:10179000C9F8184005F006FE00241020FFF70CFFE2
:1017A000142101A804F088FEBEE700BF90C700081E
:1017B0005803002070B50A4D04466421286805F0DE
:1017C000C9FA01280AD1204602F09AFB00232868B2
:1017D0001A46BDE87040194605F002BA70BD00BF58
:1017E000B0020020F8B50C46054605F0CBFD1849BF
:1017F0000B78EBB1174A184813780078013383420D
:1018000016D2DBB21370154A02EBC30112F8336033
:101810004F6805F0C7FD2A4639463046FFF7EAFE15
:101820002046FFF7C7FF0E48BDE8F840FFF7C2BFEC
:1018300000220C4B0A701A700B4B1A7000229A602F
:101840005A6005F0AFFD2046FFF7B4FF0748EBE70D
:10185000F8010020F9010020FA010020FC0100201D
:1018600095C70008BC02002058030020A8C7000844
:10187000002138B5104D114B114C286819702160AA
:1018800005F068FA02F010FB2821286805F062FADA
:1018900001280ED12368632B0BD947F230532268FD
:1018A0009A4206D82068FEF715FF0649FEF76AFF40
:1018B00038BD0548FCE700BFB4020020A4020020A8
:1018C000A8020020287E8C3C0000C84370B594B06C
:1018D0006846FFF77FFEFFF7CBFF044605F052FD99
:1018E000254B5C6105F05EFD20462449FFF706F9B3
:1018F000064630B10799084614B0BDE87040FFF7BE
:1019000097BE00210846FFF793FE6FF0360002F005
:10191000B3FADC2004F0F6FDFFF7AAFF05463720F6
:1019200002F0AAFADC2004F0EDFDFFF7A1FF044667
:10193000304602F0A1FA782004F0E4FD2146284662
:10194000FFF7DCF870B128460D49FFF7D7F848B12A
:101950000C490D48FFF76CFE4FF4AF7004F0D2FD58
:101960000021C8E706492046FFF7C8F8064908B134
:101970000448EFE70846EDE75803002000000C425A
:101980000000C84100005C4200005CC270B5044623
:101990000D461646FFF794F840B131462046FEF753
:1019A000E9FD2946BDE8704005F018BE29462046ED
:1019B000FFF7A4F848B131462046FEF7D9FD0146AD
:1019C0002846BDE8704005F0F3BD204670BD00001C
:1019D00070B5044694B06846FFF7FCFD94F83130CA
:1019E00083B994F930301149002BCCBF4FF07E50B1
:1019F0000F48FEF7C7FE00F1004114B0BDE870408B
:101A0000FFF716BE94F93000FEF768FE0C99FEF75A
:101A1000B9FE079E014604463046FEF7A9FD05467D
:101A200021463046FEF7A6FD2946E6E7000034428F
:101A3000000080BF38B50446084D05F0A3FC0FCD6B
:101A40000FC40FCD0FC40FCD0FC495E80F0084E86D
:101A50000F00BDE8384005F0A5BC00BF58030020CA
:101A600030B5D5B014AC2046FFF7E4FF219B1D989C
:101A700013939DF881309DF850501293FEF71CFD92
:101A8000CDE910011C98FEF717FDCDE90E011B985A
:101A9000FEF712FDCDE90C011A98FEF70DFDCDE918
:101AA0000A011998FEF708FDCDE908011898FEF71C
:101AB00003FDCDE906011798FEF7FEFCCDE9040110
:101AC0001698FEF7F9FCCDE902011598FEF7F4FC33
:101AD0002B46CDE90001054AC02124A808F024F8CE
:101AE00024A8FFF767FE55B030BD00BFBCC7000893
:101AF00070B54FF4966004F005FD0026124C134DAE
:101B000005F040FC2368266003F03F033F2B0DD116
:101B100005F048FC02F010FA012002F003FAFFF78A
:101B20009FFF4FF47A7004F0EDFCE9E76B6B43F034
:101B300008036B6305F036FC002002F0F3F908207F
:101B4000FFF784FDEBE700BFA00200205803002050
:101B500010B5AEB004F0B6FB002405901EA8FFF748
:101B600069FF230742D49DF878301621052B96BFD4
:101B7000314A324B52F8233006A8314A07F0D4FFDD
:101B80002298FEF799FCCDE902012198FEF794FC1A
:101B90002C4ACDE9000116210CA807F0C5FF2498B6
:101BA000FEF78AFCCDE902012398FEF785FC264A60
:101BB000CDE90001162112A807F0B6FF2B9B1621D4
:101BC0000093224A9DF8A93018A807F0ADFF18AB82
:101BD00012AA0CA906A802F021FB2020FFF7ECFCBA
:101BE000FA2105A804F068FC0134B7E7184906A8F3
:101BF00008F0A5F82698FEF75FFCCDE902012598CC
:101C0000FEF75AFC134ACDE9000116210CA807F093
:101C10008BFF2798FEF750FC0F4ACDE900011621F3
:101C200012A807F081FF05F057FB162103460B4A67
:101C300018A807F079FFCAE708D2000823C80008EF
:101C40002BC8000833C8000843C8000855C800085E
:101C500065C800086EC800087EC8000889C800086A
:101C60002DE9F04F00244FF07F570026DFF8C081A8
:101C7000A7B002A8FFF7DEFE0F9B23BB9DF808303C
:101C8000052B00F2D280DFE803F01E251C03294B50
:101C900002F086F9001B64280BD9FFF7E9FD044622
:101CA00005F070FB634B5C6105F07CFB02F078F99A
:101CB000044602A8FFF7BEFE5F490798FEF700FF43
:101CC00040B1FFF703FE0820FFF776FC322004F056
:101CD00019FCCEE702A8FFF77BFEF4E702F060F9FB
:101CE000001B64280BD9FFF7C3FD044605F04AFB2F
:101CF000504B5C6105F056FB02F052F9044602A815
:101D0000FFF798FE079D12A8FFF764FC28464B4991
:101D1000FEF7D6FE10B9199908464FE03146FBE7A9
:101D200012A8FFF757FC05F02DFB454B196993F8F6
:101D3000009001915D68D3F808B0D3F80CA005F0CD
:101D400031FBB9F1010F01993DD159460C98FEF7CD
:101D50000FFC514683460D98FEF70AFC0146584693
:101D6000FEF708FC4FF07C51FEF70CFD25F0004912
:101D700020F000414846FEF7FBFB32498146FEF762
:101D8000A9FE20B1304902A8FFF72CFD9BE73146A0
:101D90002846FEF7B3FEA0B14FF07E554FF08141CB
:101DA0004846FEF7EFFC0146199805F017FC22495A
:101DB00005F0FEFB2946FEF7E5FC0146FFF738FC7F
:101DC00081E7224DEAE7B9F1020F2BD10B98FEF71C
:101DD000CFFB25F0004920F000414846FEF7C8FB44
:101DE00039468146FEF776FE08B11949CBE7314600
:101DF0002846FEF783FE98B14FF07E553946484697
:101E0000FEF7C0FC414605F0E9FB0B4905F0D0FBAD
:101E1000014605F10040FEF7B5FC00F10041CDE7B9
:101E20000A4DEBE7FFF736FC4DE7002174E700BFF2
:101E300000007042580300200000C8410000F0413B
:101E4000BC020020CDCC4C3F93C80008000080BFEE
:101E5000A5C8000800B591B06846FFF7EBFD9DF8F6
:101E60000000A8B99DF83C307BB90198094920F0E1
:101E70000040FEF725FE40B10298064920F00040E0
:101E8000FEF71EFE003818BF012011B05DF804FBFC
:101E90000020FAE7CDCCCC3D2DE9F04F9448F7B0C7
:101EA000FFF788FC0024DFF84C82DFF84C920DF13C
:101EB0005305642301222946D8F8000005F0DAF81A
:101EC000012840F063849DF853300D2B02D00A2B7B
:101ED00040F05684002C00F0D98000262EAB1E5511
:101EE00015AC2146184601F03DFA002800F0FB83AE
:101EF00025786B1E1D2B00F2F483DFE813F01E0023
:101F0000330052006C00AB00B200C500C900CC0029
:101F1000CC00F4003B015F0171017E019701A90132
:101F2000040235024B026202C602F902350369035C
:101F30006B036B039203B003BA0305F023FA6F4BF4
:101F40006F4D1E706F4B1E7063682B700023AB606B
:101F50006B6002F025F8A86305F024FA6A48FFF7E1
:101F600029FC93E005F00EFA644B654D1E70654B3D
:101F70006649A0681E702E7005F030FB644905F0BC
:101F800017FB62496860E06805F028FB604905F0CE
:101F90000FFBA86002F004F8A86305F003FA5D489F
:101FA000DDE7A5685C492846FEF78AFD20B928468A
:101FB0005A49FEF7A3FD08B15948D0E705F0E2F908
:101FC000A268584BDA6101F0EBFF4D4B986305F0C6
:101FD000E9F95548C3E7A56800212846FEF770FDDA
:101FE000D0B928464C49FEF789FDA8B9E56800211B
:101FF0002846FEF765FD78B928464749FEF77EFD7D
:1020000050B9256900212846FEF75AFD20B9284617
:102010004649FEF773FD08B14548A0E705F0B2F95F
:10202000444EA168E26823693E48434D0161426124
:10203000836142480196009501F0E2F8019600950F
:102040003F482369E268A16801F0DAF805F0AAF9CF
:102050003C4884E701223C4B1A70FFF71BFB3B48CE
:102060007DE701F0FDFE08B1394878E7364B18707E
:10207000384B187005F086F901F092FF204B9863F9
:1020800005F090F934486AE7FFF7EAFC00247DE3A5
:1020900001F036FB63E7A56800212846FEF706FD40
:1020A00028B92E4925F00040FEF728FD08B12C483C
:1020B00055E746A8FFF7BEFC539B0BB129484EE7F6
:1020C000104AA1681370237846AA092B14BF022076
:1020D0000120FFF78FFA2078234B244A092808BFF4
:1020E0001A4610463BE7FFF7D5FA214837E700BF0D
:1020F0000EC90008B802002058CE0008BC0200201B
:1021000058030020F801002033C9000800003443C0
:10211000000034C33DC900080000A0410000164380
:1021200048C90008D00200205AC900080000A04099
:1021300074C900080000A0420000C8423C0300200F
:102140002003002084C900089D0200209CC90008CB
:10215000AFC900089C020020C3C9000800007A44EF
:10216000CEC90008E1C90008B7C80008C1C8000806
:10217000F4C900081AAC2046FFF75CFC2598FEF76E
:102180009BF9CDE908012498FEF796F9CDE90601FF
:102190002398FEF791F9CDE904012298FEF78CF916
:1021A000CDE902012198FEF787F9954ACDE90001B2
:1021B000A02146A807F0B8FC46A8D0E6FFF74AFEE3
:1021C00008B99048CBE605F0DDF800228E4B5A6244
:1021D0001A62DA61DA629A6205F0E4F88B48BEE6C8
:1021E000FFF738FE0028ECD0894800F099FF894BB2
:1021F000894A002818BF1A4673E7FFF72BFE00280C
:10220000DFD046A800F052FF044605F0BBF850228C
:1022100046A97F4807F0A9FD05F0C4F8FFF754FA76
:102220007E487F4B002C08BF184698E6FFF712FE49
:102230000028C6D0764CE56805F0A4F8204600F0EA
:10224000EBFEE56005F0AEF8FFF73EFA754886E66E
:102250001AAC2046FFF7BEF9206BFEF72DF9CDE949
:102260000A01E06AFEF728F9CDE90801E069FEF706
:1022700023F9CDE90601A069FEF71EF9CDE90401B5
:102280006069FEF719F9CDE902012069FEF714F93A
:10229000CDE90001644AE368C02146A807F044FC88
:1022A00046A8FFF787FAA36C1093606CFEF704F959
:1022B000CDE90E01206CFEF7FFF8CDE90C01606B53
:1022C000FEF7FAF8CDE90A01E06BFEF7F5F8CDE983
:1022D0000801A06BFEF7F0F8CDE90601206AFEF7D1
:1022E000EBF8CDE90401A06AFEF7E6F8CDE90201BA
:1022F000606AFEF7E1F84D4ACDE90001C02146A829
:1023000007F012FC58E7A5684FF080412846FEF719
:10231000D7FBD0B928464649FEF7F0FBA8B9E568D7
:1023200044492846FEF7CCFB78B928464249FEF7D7
:10233000E5FB50B925693E492846FEF7C1FB20B9A7
:1023400028463E49FEF7DAFB08B13D4807E605F0AE
:1023500019F82F4BA2685A62E2689A6222691A62DF
:1023600005F020F83748FAE5A56831492846FEF718
:10237000A7FB20B928463449FEF7C0FB08B1334813
:10238000EDE504F0FFFFA268214BDA6205F00AF8E0
:102390002F48E4E5A5684FF07E512846FEF790FBF4
:1023A00020B928462B49FEF7A9FB08B12A48D6E5F3
:1023B00004F0E8FFA268164B1A6304F0F3FF274805
:1023C000CDE5A66826493046FEF77AFBB0B9E56848
:1023D00030462946FEF792FB80B928462149FEF790
:1023E0008DFB58B925694FF07E512846FEF768FBF2
:1023F00020B928461C49FEF781FBC8B31B48AEE54F
:1024000000CA000842CA00085803002053CA000846
:10241000D0020020CBC80008D6C80008E2C80008D7
:10242000EEC8000862CA00087FCA0008BFCA0008D8
:102430000000A0410000A0400000484200409C462F
:102440000BCB00081DCB000800007A4437CB0008F6
:1024500048CB00080000204261CB000876CB000882
:10246000000020400000A8410000204193CB00085C
:1024700004F088FF9D4BA2689A63E268DA632269E0
:102480005A6304F08FFF9A4869E5A5689949284680
:10249000FEF716FBD8B928469749FEF72FFBB0B9CF
:1024A000E5684FF07C512846FEF70AFB78B92846CC
:1024B0009249FEF723FB50B9256991492846FEF75A
:1024C000FFFA20B928468F49FEF718FB08B18E485D
:1024D00045E504F057FF854DA36820692B64E36848
:1024E0006B64FEF751FBA86404F05CFF874836E597
:1024F00004F0F2FE044604F0F5FE054601F0AAFCE5
:102500002346C021824A834CCDE9005046A807F0FB
:102510000BFB46A8FFF74EF9206804F0C9F81390AA
:10252000606804F0C5F80646A06804F0C1F80746E4
:10253000E06804F0BDF88246206904F0B9F88346EB
:10254000606904F0B5F80546A06904F0B1F8C0214F
:10255000CDE90450CDE902ABCDE90067139B6E4A8B
:1025600046A807F0E1FA27E6002504F00BFF6B4BC5
:10257000DFF8ACC11C786B4B1AAF1A78121BD2B2C1
:10258000EBB29C4204D804F00DFF74B96648E6E44F
:10259000134403F0070307EBC5060CEBC30393E8F2
:1025A0000300013586E80300EAE700251AAE7368E8
:1025B0005021009356F8083B5C4A46A807F0B4FA4D
:1025C000013546A8FFF7F6F8EBB29C42EFD85DE57F
:1025D0005748C4E4A46800212046FEF767FA28B9EA
:1025E000544924F00040FEF789FA08B15248B6E495
:1025F000524B1B780BB15248B1E452490B78072B70
:1026000001D95148ABE41A2D14BF022001204F4AD2
:1026100002F8330002EBC30201334D4854600B70E3
:102620009DE446A8FFF706FA464B1B780BB94948CC
:1026300095E4FFF70FFC00283FF4C3AD539B002B3C
:102640007FF43CAD444A137001223C4B1A703F4B5F
:1026500046AA18785968FEF7CDFF40487FE4374B0B
:102660001B78002BC7D13C4A3D481370354A137084
:1026700075E4344E3378002B30D13A486FE417F8C4
:102680003430DFF8E4A004F1010B012B08BFCA4687
:1026900007EBC4035868FDF70FFF284B1B78DBB12D
:1026A0002D4B324A93F800C0314BA44518BF134656
:1026B000CDE902012F4A50210493CDF800A05B46DA
:1026C00046A807F031FA46A8FFF774F801353378C9
:1026D000ECB2A342D3D8D9E4244BE9E700251B4F41
:1026E000F5E725483BE4254839E400BFD002002047
:1026F000A7CB00080000A0410000C8420000F04144
:102700000000484300409C45C3CB0008D5CB0008DF
:10271000EFCB00083C0200201FCC0008580200202C
:102720005C020020590200207BCC000887CC000806
:10273000A3CC000800007A44C8CC0008F8010020AF
:10274000DACC0008FA010020EECC0008FC010020E1
:10275000FFCC000810CD0008F901002022CD0008B0
:1027600031CD000814CD00085ECE0008C7CC0008AB
:1027700006C9000844CD000859CD000867CD0008FF
:10278000621C5F2A07D82EA90B5514460420FEF7B9
:1027900013FFFFF78CBB0148FFF7E1BB74CD0008C6
:1027A0002DE9F04F4FF00008A7B003F08BFD444631
:1027B0004FF0000A484D019002A8FFF73BF912A81C
:1027C000039F049EFEF706FF01F04AFBDFF80CB101
:1027D00010B101238BF80030DDF820904FF07E51CE
:1027E0004846FEF78BF928B148462099FEF768F96C
:1027F000002844D148462199FEF776F900283CD1BB
:10280000002C3CD1364A9DF8083092F800909BF895
:1028100000204FEA491949EA420949EA0409A3B9E3
:10282000294627F00040FEF769F928B9294626F025
:102830000040FEF763F940B101F0B2FB109BC01AF3
:10284000B0F57A7F88BF49F00409DFF898B004F04A
:1028500099FDCBF83490B9F1000F12D1294627F039
:102860000040FEF74BF998BB294626F00040FEF7E2
:1028700045F9003818BF01200CE00024C2E701240C
:10288000C0E70020184BCBF804A01870174BCBF80A
:1028900008A018708BF83C0004F084FDC84502D0F5
:1028A0004846FEF7D3FEB9F1000F13D001F078FBD4
:1028B000FA23B0FBF3F000F0010001F02BFB022043
:1028C000FEF77AFE322101A803F0F6FDC84673E751
:1028D0000120DFE74846F0E7CDCCCC3D9D0200204B
:1028E0009C02002058030020BC020020F8010020B8
:1028F0002DE9F04FAFB003F0E5FC00240023A34620
:10290000984626462746099003930DF1220108A810
:1029100001F026FA1AA8FEF75DFE2B9B229DBDF959
:1029200020000493FDF7DAFE8D49FDF72BFF2946C1
:10293000FDF7DCFF3946FDF71BFE8A49FDF722FF54
:1029400001463846FDF716FE0746BDF92200FDF7A1
:10295000C5FE8349FDF716FF2946FDF7C7FF31463F
:10296000FDF706FE7F49FDF70DFF01463046FDF7F6
:1029700001FE06460AA8FFF75DF8DDF88C90BDF968
:102980002000FDF7ABFE7849FDF7FCFE4946FDF758
:10299000F9FE2946FDF7AAFF0090BDF92200FDF7D8
:1029A0009DFE7149FDF7EEFE4946FDF7EBFE294617
:1029B000FDF79CFF014601900098FDF7DBFD4FF00D
:1029C0007C51FDF7DFFE009981460198FDF7D0FDAF
:1029D0002499FDF78BFF139B054663491846029324
:1029E000FDF7D0FE6149FDF781FF4FF07C51824633
:1029F0002846FDF7C7FE01465046FDF7BBFD82465F
:102A000004F06CFD4946FDF7BDFE1199FDF7B2FDDE
:102A10000590504604F096FD4946FDF7B3FE129925
:102A2000FDF7A8FD514906902846FDF7ABFE4E493B
:102A3000FDF75CFF029B1946FDF79CFD9DF8643095
:102A400007900BB1179D9DB300250024484800F066
:102A5000E2FB484800F0DFFBA84601F003F9A3467B
:102A600004F090FCDFF81091059B0099C9F81C3028
:102A7000069B1498C9F82030079BC9F80C70C9F858
:102A80002430C9F81060FDF775FD0199C9F82800D8
:102A90001598FDF76FFDC9F82C0004F083FC0120A8
:102AA000FEF78AFD0A2109A803F006FD03952CE72D
:102AB00032492598FDF766FE0B9981460246584635
:102AC000FEF764FF4A460C9983462046FEF75EFFF8
:102AD0003A4604465946294B254800F0A0FB274BAF
:102AE000824632462146234800F099FB0146814642
:102AF000504601F099F82A9B2AF0004019460293AB
:102B0000FDF7F2FF50B31E492BF00040FDF7ECFF3C
:102B100020B3049927F00040FDF7D2FFF0B108F18F
:102B20000A08029829F00041FDF7D4FF68B1144962
:102B300024F00040FDF7D8FF38B1049926F000409A
:102B4000FDF7BEFF08B1039D0A352C9B434501D913
:102B5000AB4285D801220B4B1A7081E7A846E0E70B
:102B60000080BB459A99993EDB0F494000003443F1
:102B70003C03002020030020580300200AD7233CF8
:102B80000000F0419C0200201FB5002303930D4B71
:102B90008DF80700186888B103AB01220DF1070119
:102BA00004F022FA039B4BB14FF0E0234FF0805228
:102BB000C3F8042DBFF34F8FBFF36F8F05B05DF8DF
:102BC00004FB00BFB8020020002307B50193134B9C
:102BD00030B1134A116001221A7003B05DF804FB92
:102BE0001A78002AF9D00E4A1268891A0D4A116023
:102BF00018700D4B18680028EFD001A904F07FF879
:102C0000019B002BE9D04FF0E0234FF08052C3F836
:102C1000042DBFF34F8FBFF36F8FDEE7A4020020B8
:102C2000AC020020A8020020B402002073B5244C9E
:102C3000244D204600F03AFA40220021214806F0B7
:102C4000EDFF14220021204806F0E8FF1F4B204E24
:102C50006B614FF08243AB6101F0A2F9A8631D4D97
:102C600001960095A369626921691B4800F0C8FAC2
:102C700000950196A36962692169184800F0C0FABD
:102C800000220121802004F088F9154D0322002143
:102C90002860012003F08DFF124C2060012004F019
:102CA0001CF8114B18602B6813B1236803B120B9CD
:102CB00002B0BDE87040FEF733BB02B070BD00BF8C
:102CC000D002002058030020BC0200200000C843AE
:102CD0000000A0420000C8423C0300202003002066
:102CE000B8020020B4020020B002002005232DE924
:102CF000F74F334DB02233490195009332480023FA
:102D000003F0D4F92B1D019306230446A0222F497A
:102D100000932F48002303F0C9F905F1080301933C
:102D2000042382464FF480722A4900932A480023E4
:102D300003F0BCF905F10C03019303238146D02273
:102D4000264900932648002303F0B0F905F110034B
:102D5000019302238046A0222249009322480023A7
:102D600003F0A4F94FF0010B05F114030746E0222C
:102D70001E4901931E480023CDF800B003F096F9D8
:102D8000183506460023B022CDE900B519491A4886
:102D900003F08CF904EA000303EA0A0303EA0903D7
:102DA00003EA08033B4003EA0600C30701D4FEF729
:102DB000B7FA03F04FFA03B0BDE8F04FFEF7B0BA30
:102DC0003C02002083CD0008F12800088BCD0008CC
:102DD000A127000892CD0008991E000897CD000891
:102DE000611C0008A0CD000815170008A7CD000839
:102DF000511B0008AFCD0008F11A0008411E00F178
:102E00004B034FF0FF3030B5084D11F8012F504003
:102E1000082240F30004013A2C4012F0FF0284EA39
:102E20005000F6D18B42F0D1C04330BD2083B8EDC5
:102E300002686C4B70B59A42044640F0D1804368FA
:102E4000022B40F0CD808368502B40F0C980C56CC8
:102E5000FFF7D4FF854240F0C38025690021284652
:102E6000FDF742FE002800F0BA8028465E49FDF7D3
:102E700031FE002800F0B380656900212846FDF787
:102E800033FE002800F0AB8028465749FDF722FEAC
:102E9000002800F0A480A56900212846FDF724FE43
:102EA000002800F09C8028465049FDF713FE0028BA
:102EB00000F09680E5694C492846FDF715FE00288C
:102EC00000F08D8028464A49FDF704FE002800F0F6
:102ED0008680256A44492846FDF706FE00287ED0F4
:102EE00028464449FDF7F6FD002878D0656A4FF082
:102EF00080412846FDF7F8FD002870D028463A4961
:102F0000FDF7E8FD00286AD0A56A38492846FDF794
:102F1000EBFD002863D028463749FDF7DBFD00288C
:102F20005DD0E56A30492846FDF7DEFD002856D021
:102F300028463249FDF7CEFD002851D0256B4FF0D1
:102F40007E512846FDF7D0FD002848D028462C4960
:102F5000FDF7C0FD002842D0656B4FF07E5128463A
:102F6000FDF7C2FD00283AD028462649FDF7B2FDFC
:102F7000002834D0A56B24492846FDF7B5FD00286C
:102F80002DD028461849FDF7A5FD40B3E66B28462D
:102F90003146FDF79FFD10B330461C49FDF79AFD01
:102FA000E8B1256C10492846FDF79EFDB8B12846CA
:102FB0001749FDF78FFD98B1656C4FF07C5128469D
:102FC000FDF792FD58B128461249FDF783FD30B157
:102FD000A06CC838B0F5965F8CBF0020012070BD92
:102FE0000020FCE7524143530000A0410000A040F4
:102FF0000000164300409C460000484200007A440E
:103000000000204200002041000020400000A841B4
:103010000000C8420000F041442210B500210446DF
:103020000C3006F0FBFD0223124AC4E900235023B2
:10303000A360114B2361114B6361114BA361114BD1
:10304000E361114B2362114B6362114BA362114B7D
:10305000E362114B2363114B6363114BA363114B69
:10306000E363114B23644FF0814363644FF47A733D
:10307000A36410BD524143539A99193F3333B33E71
:103080000AD7A33B0000A042000043440000D04008
:1030900000006841000034430000604138F880407F
:1030A0003333D340CDCCDC40000096422DE9F047CD
:1030B00006460025184CDFF864A0A8B0502221462F
:1030C0000DEB020006F051FED4F80C8014A8CDF8E8
:1030D0005C80FFF7ADFE074650B10DB1C84507D97A
:1030E000502268460DEB020106F03FFEC1463D4608
:1030F00050345445E2D155B1502269463046CDF89E
:103100000C9006F032FE284628B0BDE8F087304625
:10311000FFF782FFF7E700BF00F80308D0FF0308BE
:103120002DE9F0419AB005461022002102A806F0D0
:1031300075FD0223502600242E492846C5E90013B8
:10314000EB68AE600133EB600194FFF757FEE86473
:103150002846FFF76DFE00B306FB04F303F100639E
:1031600003F57E331B68013302D00134192CF3D1EF
:1031700001F018FD88B934221F4B192CDA6010D1E8
:1031800001231E4A029001A902A8CDE9042301F0FF
:10319000B3FD044628B101F017FD00201AB0BDE8C8
:1031A000F08150235C4304F1006404F57E3427462B
:1031B0002E1F05F14C0800233946022056F8042F33
:1031C00001F036FD0028E6D1464507F10407F2D1AB
:1031D00001F0FAFC5022214606A806F0C6FD06A81A
:1031E000FFF726FE0028D9D0E868E368C31A5842E2
:1031F0005841D3E7524143530020024000F80308EE
:103200008360009B0160C360019B426003610023F7
:1032100043618361704700234361836170472DE9F7
:10322000F0410446084611461D46FDF7A1F9A16983
:103230000646FDF79DF92946FDF758FB29468046CD
:103240003046FDF79FFA6169FDF794F92569074655
:103250002946FDF753FC38B905F1004529463846A3
:10326000FDF72EFC00B93D46216865613046FDF74B
:1032700089FA616807462846FDF784FA0146384610
:10328000FDF778F9A16805464046FDF77BFA01464F
:103290002846FDF76FF9A661E46805460146204619
:1032A000FDF70EFC38B904F1004421462846FDF72D
:1032B00007FC00B92C462046BDE8F081024630B537
:1032C00001680B780846202B01F10101F9D0092B88
:1032D000F7D0CBB91060184630BDEC5C04F00304A5
:1032E000022C08BF203B0B701168013111600B7874
:1032F000002BF1D0202B01D0092BEED100230B7035
:10330000136801331360E7E70146014DEEE700BFA4
:1033100051D7000837B50D460446E0B101A905F0C4
:103320008BFE019B28609C4217D01B78ABB920F024
:10333000004528460A494FF00104FDF7E9FB28B98A
:1033400028460749FDF7DAFB00B9044684F001007E
:10335000C0B200F0010003B030BD0020F9E700BFAB
:10336000FFFF7F7F73B5019001A80D46FFF7A6FF11
:10337000044614220021284606F050FC14B900200F
:1033800002B070BD2046AE49FDF71EFC20B12046BC
:10339000AC49FDF719FC10B905232B70C7E0204696
:1033A000A949FDF711FC08B90623F6E72046A7490D
:1033B000FDF70AFC08B90723EFE72046A449FDF70B
:1033C00003FC08B90823E8E72046A249FDF7FCFB07
:1033D000002800F0328120469F49FDF7F5FB0028C8
:1033E00000F0768120469D49FDF7EEFB002800F0B5
:1033F000718120469A49FDF7E7FB002800F06C81B7
:1034000020469849FDF7E0FB002800F06781204640
:103410009549FDF7D9FB002800F0628120469349C9
:10342000FDF7D2FB002800F05D8120469049FDF7B2
:10343000CBFB002800F0588120468E49FDF7C4FBE5
:10344000002800F0538120468B49FDF7BDFB002882
:1034500000F04E8120468949FDF7B6FB002800F0B8
:10346000498120468649FDF7AFFB002800F04481E2
:1034700020468449FDF7A8FB002800F03F81204644
:103480008149FDF7A1FB002835D101A8FFF716FF00
:10349000044600283FF473AF01A8FFF70FFF002890
:1034A0007FF46DAF0126204678492E70FDF78CFB26
:1034B00010B96860012063E720467549FDF784FB79
:1034C00008B96E60F6E720467249FDF77DFB10B93A
:1034D00002236B60EEE720466F49FDF775FB08B9E4
:1034E0000323F6E720466D49FDF76EFB00287FF4C5
:1034F00046AF0423EDE720466949FDF765FBE8B9CF
:103500002C46022301A804F8083BFFF7D7FE21460A
:10351000FFF700FF00283FF432AF01A8FFF7CEFE0F
:1035200005F10C01FFF7F6FE00283FF428AF01A8D3
:10353000FFF7C4FEB0FA80F0400921E72046594960
:10354000FDF742FB38B9032305F8083B01A8FFF754
:10355000B5FE2946E6E720465349FDF735FBE8B9B5
:1035600004232C460DEB030004F8083BFFF7A6FEEE
:103570002146FFF7CFFE00283FF401AF01A8FFF777
:103580009DFE05F10C01FFF7C5FE00283FF4F7AEE4
:1035900001A8FFF793FE05F11001C3E72046434958
:1035A000FDF712FB30B320464149FDF70DFB18B380
:1035B00020464049FDF708FB00B320463E49FDF791
:1035C00003FB48B120463D49FDF7FEFA20B12046F5
:1035D0003B49FDF7F9FAA8B920463749FDF7F4FA57
:1035E00070B120463549FDF7EFFA00280CBF1323D0
:1035F0001423A9E70923A7E70A23A5E71A23A3E7CA
:103600001B23A1E720462F49FDF7DEFA88B12046AB
:103610002D49FDF7D9FA70B120462C49FDF7D4FAAF
:1036200000287FF4ACAE16232C4601A804F8083B12
:103630009CE71223F8E71523F6E70B23ADE600BF5E
:10364000E0CD0008DFCD0008E5CD0008EBCD000897
:10365000F2CD0008F7CD000803CE0008FECD00082B
:1036600008CE00080DCE000812CE00081BCE0008C0
:1036700022CE000827CE00082BCE000833CE00084B
:1036800037CE00083CCE000842CE0008B7CD000877
:10369000BECD0008C4CD0008CACD0008D1CD0008B9
:1036A00047CE00084DCE000853CE000858CE000883
:1036B0005ECE000857CE00085DCE000863CE00083D
:1036C00068CE000871CE000877CE00087FCE0008D3
:1036D0000C2362E60D2360E60E235EE60F235CE614
:1036E00010235AE6112358E6172356E6182354E60A
:1036F000192352E61C2350E61D234EE61E234CE6FA
:103700000048704785CE000830B58BB004460D46A2
:103710001C22002102A806F081FA00234FF6FF7256
:10372000C4E90133C4E90323A36103230122019304
:1037300006232046256001A9039205930792099369
:1037400001F0FEFC08B1FDF7EBFD0BB030BD000051
:103750002DE9F84323F0004407460E462046214950
:1037600090461D46FDF7CAF900B11E4C28461E4979
:10377000FDF7C4F98146D0B1012239461B4801F05A
:103780006BF900223146194801F066F9184B1949C6
:1037900020461D68FCF7F6FF1249FDF7A7F8FDF774
:1037A000F3F9B8F1000F1BD16863BDE8F883284630
:1037B0001149FDF785F9054630B14A4639460B48AF
:1037C00001F04AF90122DDE702463946074801F0D7
:1037D00043F92A463146054801F03EF90024D5E771
:1037E000A863E2E70000C842CDCC4C3D000C01408C
:1037F0007C04002000F06045CDCC4CBD2DE9F047A5
:10380000B94C98B000F046FD656A636A666AC3F316
:10381000C063C6F300765B00C5F3806543EA8603A8
:103820002B430125606A616AC0F34070626A43EA13
:10383000C003C1F3807143EA0113D20F43EA42137C
:10384000AA4A00211360AA4B1422C3F8E05410A81E
:1038500006F0E4F91422002109A806F0DFF94FF47C
:1038600080330E95129502250F93CDE915534FF431
:10387000E0130EA8179300F01FFD08B1FDF750FDEF
:103880000F234FF48062CDE909350023022109A8F6
:10389000CDE90B320D9300F0D1FE08B1FDF740FDEC
:1038A0004FF01008002142460EA806F0B7F9A369B0
:1038B000904A43F00103A361A36941F6080103F0B4
:1038C00001030693069BA3698B4843F00403A3619D
:1038D000A369012603F004030793079BA3694FF034
:1038E000030A43F00803A361A369022703F0080356
:1038F0000893089BA369002543EA0803A361A36911
:103900004FF4407903EA08030993099B536823F0B5
:10391000E06343F000735360002201F09DF8002241
:103920004FF47341754801F097F801224FF40051AC
:10393000734801F091F841F608036F480EA9CDE9EC
:103940000E36CDF844A000F0A1FF4FF470436B4851
:103950000EA90E9300F09AFF4FF4005368480EA989
:103960000E93119700F092FF112364480EA9CDE940
:103970000E93CDE9105A00F089FF324649465F4860
:1039800001F06AF83B235D480EA9CDE90E3510968B
:1039900000F07CFF4FF4004357480EA90E93109699
:1039A00000F074FF574B54480EA9CDE90F37CDF8FE
:1039B000388000F06BFF2A4606210A2001F078F8D3
:1039C0000A2001F0A5F8CDE90E551095A3694E4ADD
:1039D00043F40073A361A369104603F400730593D5
:1039E000059B636823F4404343F400436360474B03
:1039F000956013604FF4602315731575D36155609E
:103A0000166102F0BBF908B1FDF78AFC06233E48B7
:103A10000EA9CDE90E76109302F06EF808B1FDF70D
:103A20007FFC394802F052FA08B1FDF779FC1C22FC
:103A300000210EA806F0F2F8A369354943F40063AB
:103A4000A361A369472003F400630493049B314BF3
:103A500044F61F620B600023C1E901030846C1E977
:103A60000323C1E9053301F03FFB08B1FDF758FC22
:103A7000602140F2DC530022CDE90E1324480EA948
:103A8000CDE91022CDE91222149201F0DDFB08B13C
:103A9000FDF746FC1E48FDF7EBFC1C2200210EA89A
:103AA00006F0BCF8E3691C4A43F00103E361E369F3
:103AB000002503F001030393039B4FF08043136041
:103AC00040F60F631046C2E90155C2E9033595611E
:103AD00001F00AFB08B1FDF723FC602300220E4829
:103AE0000EA9CDE90E3519E0001002409803002020
:103AF000000042420000014000080140000C01406B
:103B00000010014000003110180500200024014081
:103B1000C4040020002C01407C0400201095129564
:103B200001F092FB002854D0FDF7FAFB2D48FDF779
:103B30009FFCE3692C4943F00203E361E3692B48EE
:103B400003F002030E930E9BFFF7DEFDE3692849A5
:103B500043F00403E361E369264803F0040302939E
:103B6000029BFFF7D1FDA369234943F48043A3617E
:103B7000A3694FF4E13203F480430193019B1F4B8F
:103B800008460B600023C1E901230C22C1E903337D
:103B9000C1E90523CB6101F0AFFC08B1FDF7C0FB23
:103BA00000220621252000F083FF252000F0B0FF31
:103BB000134AD2F8FC3043F08073C2F8FC30002284
:103BC000104B5A601A6842F001021A6018B0BDE842
:103BD000F087042203480EA901F036FB0028A3D188
:103BE000A4E700BF7C04002000040040340400204F
:103BF00000080040EC030020A4030020003801402E
:103C000000ED00E0001000E0044B054A5868054B49
:103C10001B68B3FBF2F3B0FBF3F07047001000E059
:103C200040420F000000002070B505460C460122FE
:103C30004FF480510A4800F00FFF2B4600224FF44A
:103C400000514FF48050FFF783FD2346BDE87040DC
:103C500004224FF400414FF48040FFF779BD00BFCC
:103C60000008014010B50024002223464FF4005103
:103C70004FF48050FFF76CFD234604224FF40041BF
:103C80004FF48040FFF764FDBDE8104000224FF480
:103C90008051014800F0E0BE00080140002108B555
:103CA000254801F08DFB014660B3FDF739FB234B3E
:103CB0001B685A6A224B1A80224B1B685A6A224B95
:103CC0001A80FFF7CFFF40F2DC521B4B1B685A6390
:103CD00000F08CFA01221D491D4801F054FE08B184
:103CE000FDF71EFB1B4A1C4B0421136040F2E2430C
:103CF0001046C2E9011302F059F9D8B1BDE80840F5
:103D0000FDF70EBB154801F05BFB0028CDD1042167
:103D1000124801F055FB0028C7D13C21074801F0AB
:103D20004CF90028C1D13C21064801F046F9002891
:103D3000BBD1BCE708BD00BFC40400203404002090
:103D40009E030020EC0300209C030020A003002021
:103D5000A40300200C050020003000407C0400205B
:103D6000094B30B51B68094D5A6A094B2C881B68F2
:103D700092B2141B5B6A0480064C9BB220882A8096
:103D8000181A0880238030BD340400209E030020D0
:103D9000EC0300209C03002038B50121164800F0F8
:103DA00055FE02210546144800F050FE0821044645
:103DB000114800F04BFEB0FA80F3B4FA84F25B09CC
:103DC00052099C0010210C4844EA420400F03EFED7
:103DD000B0FA80F0002D08BF44F00104400944EA25
:103DE000C0042021044800F031FEB0FA80F0400900
:103DF00044EA001038BD00BF000C014070B5044615
:103E000008260025114801F031FF08B1002070BDDF
:103E100002210E4801F0C8FD0028F7D10B4801F03F
:103E200067FE0544094802F037F8013EEAD128460A
:103E3000FCF750FC4FF07851FCF7A4FC0449FCF768
:103E4000A1FC2146FCF79EFCE1E700BF180500201D
:103E50006740533A014B1868704700BF9803002031
:103E60004FF4004108B5034800F0F0FDB0FA80F0CF
:103E7000400908BD000801406FF03B01884203463D
:103E8000B8BF0B463C2B4FF4FA71A8BF3C234B4301
:103E90003C2193FBF1F3034A03F2DC5312685363B2
:103EA000704700BFC40400200022082108B50F4855
:103EB00000F0D2FDFFF7A8FE0146FFF7A5FE431A6A
:103EC000022BFAD901220821084800F0C5FDFFF7AE
:103ED0009BFE0146FFF798FE431A092BFAD9BDE86D
:103EE000084000220821014800F0B6BD000801404A
:103EF0008AB232230146014801F02DBBA403002001
:103F000010B50446FCF76AFE01462046BDE81040A5
:103F1000FFF7EEBF02464FF40061014800F09CBD80
:103F20000008014080F001024FF40051014800F008
:103F300093BD00BF00100140014802F060B800BF0F
:103F40000C0500201028014610B50DD1074800F0DF
:103F50007DFD0446FFF758FE631E0146BDE8104094
:103F600058425841FEF730BE10BD00BF0008014066
:103F70000268084B10B59A420AD1074C2078FEF728
:103F800003FE2146BDE810400122044801F0FBBCBD
:103F900010BD00BF00380140A0030020A403002092
:103FA00008B502F09BFB012803D0BDE8084002F0F1
:103FB00089B9014B186808BD48050020002382B06C
:103FC0000193019B092B01D902B0704700BF019BEF
:103FD0000133F5E738B504460825E2094FF40071CE
:103FE000174800F039FD01224FF480711448FFF7A3
:103FF000E5FF013D00F030FD00224FF480711048D4
:10400000FFF7DCFF640000F027FD15F0FF05E4B2C8
:10401000E3D101224FF40071094800F01DFD012297
:104020004FF48071064800F017FDFFF7C7FF2A46DE
:10403000BDE838404FF48071014800F00DBD00BF6D
:10404000000C014070B506460C4615464FF4007151
:1040500001221F4800F000FD01224FF480711C482E
:1040600000F0FAFC00224FF400711948FFF7A6FF98
:1040700000F0F2FC00224FF480711548FFF79EFF1C
:1040800000F0EAFC7820FFF7A5FF3046FFF7A2FF1B
:10409000254414F8010BFFF79DFFAC42F9D1002233
:1040A0004FF400710A4800F0D7FC01224FF48071F0
:1040B000074800F0D1FC01224FF400710448FFF7DB
:1040C0007DFF00F0C9FCBDE87040FFF777BF00BF7F
:1040D000000C014007B501228DF807000DF1070122
:1040E0000020FFF7AFFF03B05DF804FB2DE9F04FB0
:1040F000A1B08B46802204460021684605F08EFD63
:1041000000256A464FF0100E4FF008084FF00409E2
:104110004FF0020A324E334F0BF1FF300BF1150B0B
:1041200010F8013F0BB1584511D144F0B000FFF732
:10413000D1FF0020FFF7CEFF1020FFF7CBFF80223A
:1041400069464020FFF77EFF21B0BDE8F08F264989
:104150001560C95C157101F00301022908BF203BFD
:10416000D9B23A2911D82C2903D8212935D00632C1
:10417000D6E72E390C291AD8DFE801F01E231010DB
:104180001010101010101010210041391929EED80C
:10419000413B03EB83039919F35804E0303B03EBF5
:1041A0008303D919FB5813600B791371DFE70823D8
:1041B000D37093705370DAE760239370D7E7362398
:1041C000FBE74FF0200382F801E0137082F80280D1
:1041D00082F8039082F804A0C9E75F23EDE700BFEF
:1041E00020D20008A2D2000851D7000838B5002418
:1041F000084D15F8010B0134FFF76CFF1C2CF8D1AA
:104200000024E0B204490134FFF770FF082CF8D114
:1042100038BD00BFD4D20008C7CC000870B50E4628
:1042200015461C4601460020FFF760FF314602207C
:10423000FFF75CFF29460420FFF758FF2146BDE841
:1042400070400620FFF752BF7047000038B50E4B94
:1042500005461A784FF47A73B3FBF2F30B4A1068F1
:10426000B0FBF3F000F062FC044658B90F2D09D8FA
:10427000024629464FF0FF3000F01AFC2046044B5E
:104280001D6038BD0120FCE7040000200000002074
:1042900008000020074A08B51368032043F0100304
:1042A000136000F0F3FB0F20FFF7D0FFFDF764F879
:1042B000002008BD002002402DE9F341054638B337
:1042C0000368DB0710D42B689F075ED42B6819079F
:1042D00000F195802B685A0700F1C180EB69002B33
:1042E00040F02C81002029E0904C636803F00C031F
:1042F000042B07D0636803F00C03082B0AD1636812
:10430000DE0307D523689C03DDD56B68002BDAD16B
:10431000012013E06B68B3F5803F12D1236843F4AA
:1043200080332360FFF73CFE064623689803CAD417
:10433000FFF736FE801B6428F7D9032002B0BDE8E2
:10434000F0819BB9236823F480332360236823F42E
:1043500080232360FFF724FE064623689903B2D525
:10436000FFF71EFE801B6428F7D9E6E7B3F5A02F00
:10437000236803D143F480232360CFE723F4803301
:104380002360236823F48023CBE7684C636813F031
:104390000C0F07D0636803F00C03082B10D163687F
:1043A000DA030DD423689B0702D52B69012BAFD10B
:1043B00023686A6923F0F80343EAC203236085E7B0
:1043C0002A695B4B6AB101221A60FFF7E9FD0646D4
:1043D00023689F07ECD4FFF7E3FD801B0228F7D981
:1043E000ABE71A60FFF7DCFD0646236898077FF508
:1043F0006DAFFFF7D5FD801B0228F6D99DE7AA69AE
:104400004A4E4B4BE2B10122C3F88024FFF7C8FDAE
:104410000446736A9B070DD54FF4FA52454B1B684F
:10442000B3FBF2F3019300BF019B5A1E0192002BD4
:10443000F9D14FE7FFF7B4FD001B0228E9D97CE76B
:10444000C3F88024FFF7ACFD0446736A9F077FF52D
:1044500041AFFFF7A5FD001B0228F6D96DE7334CED
:10446000E369D80024D40127E36943F08053E36172
:10447000E36903F080530093009B2F4E3368D90506
:1044800018D5EB68012B26D1236A43F00103236280
:10449000FFF786FD41F288380646236A9B073FD521
:1044A000002F3FF41BAFE36923F08053E36115E76E
:1044B0000027E2E7336843F480733360FFF770FD51
:1044C00080463368DA05DCD4FFF76AFDA0EB08000C
:1044D0006428F6D931E7ABB9236A41F2883823F072
:1044E00001032362236A23F004032362FFF758FDCC
:1044F0000646236A9807D3D5FFF752FD801B404537
:10450000F7D91AE7052B236A03D143F0040323628A
:10451000BAE723F001032362236A23F00403B6E71A
:10452000FFF73EFD801B4045B7D906E7001002406B
:104530000000424200000020007000402A4C6268E7
:1045400002F00C02082A3ED00022022B274B1A66EA
:104550002CD1FFF725FD06462368990120D42B6A4C
:10456000B3F5803F05D16268A96822F400320A439E
:104570006260696A62680B4322F474121343012279
:1045800063601A4B1A66FFF70BFD054623689A0114
:104590003FF5A8AEFFF704FD401B0228F6D9CCE694
:1045A000FFF7FEFC801B0228D6D9C6E6FFF7F8FC11
:1045B000054623689B017FF595AEFFF7F1FC401B94
:1045C0000228F6D9B9E6012B3FF4A2AE60682B6A47
:1045D00000F480329A427FF49BAE6B6A00F4701054
:1045E000C01A18BF0120A9E6001002400000424294
:1045F0000D4A536803F00C01082912D10B48C3F38C
:104600008341DB03405C09D55368094AC3F3404347
:104610005043084AD35CB0FBF3F07047064B584355
:1046200070470348704700BF001002400AD30008DB
:1046300000127A0008D3000800093D002DE9F0417E
:104640000D46044610B90120BDE8F081444A1368C4
:1046500003F007038B4228D321688E0730D4CA07A2
:1046600043D43F4A136803F00703AB4265D822687E
:104670003C4D12F0040F6CD1130706D56B6822690C
:1046800023F4605343EAC2036B60FFF7B1FF6B682A
:10469000354AC3F30313D35CD840344B1860344B12
:1046A0001868FFF7D3FD0020CEE7136823F0070357
:1046B0000B431360136803F007038B42C3D1CBE7AE
:1046C000284B11F0040F1EBF5A6842F4E0625A6092
:1046D000080742BF5A6842F460525A605A68A0689C
:1046E00022F0F00202435A60B9E762681D4E012AC7
:1046F00033681AD113F4003FA5D0736841F28838AB
:1047000023F0030313437360FFF74AFC0746736803
:10471000626803F00C03B3EB820FA2D0FFF740FCFA
:10472000C01B4045F3D903208EE7022A02D113F0C3
:10473000007FE1E713F0020FDEE7136823F00703C1
:104740002B431360136803F00703AB427FF47BAF86
:104750008DE76B68E16823F4E0630B436B608BE7E4
:104760000020024000100240F8D2000800000020A3
:1047700008000020044B054A5B68C3F30223D35CA6
:10478000034A1068D840704700100240F0D2000879
:1047900000000020044B054A5B68C3F3C223D35CCE
:1047A000034A1068D840704700100240F0D2000859
:1047B00000000020082808B50AD8002843D0013896
:1047C000072856D8DFE800F02B49552755555527BF
:1047D00010284ED1284B5A68186810F0807032D0DB
:1047E000C2F383412548D20348BF5A68405C41BFA9
:1047F0002349C2F34042895C224A5B684CBFB2FB4A
:10480000F1F2214A5B0202FB00F01CD403234000BA
:10481000B0FBF3F017E0BDE80840FFF7E9BE40F257
:104820000231154A136A1940B1F5817F1ED003F495
:104830004073B3F5007F07D149F64040536A13F047
:10484000020F08BF002008BDB3F5407F11D11368E7
:104850004FF2244013F4003FF3E7FFF79BFF064BB2
:104860005B68C3F3813301335B00D1E74FF4004051
:10487000E9E70020E7E700BF001002401CD3000872
:104880001AD3000800127A0000093D002DE9F74F05
:1048900000244FF00F0E2646DFF89CC1674B00F155
:1048A00004080A6832FA06F502D103B0BDE8F08FB9
:1048B000012505FA06F702EA070537EA02027ED16A
:1048C0004A68032A07D8013A022A00F28C80DFE8FE
:1048D00002F09A9FA500122A00F09D8071D8112A3B
:1048E00000F09380FF2D94BF8146C1464FEA8602B7
:1048F000D9F8007088BF203A0EFA02FA27EA0A07B0
:1049000004FA02F21743C9F80070D1F8049019F0C4
:10491000805F54D0DCF8182026F0030742F0010233
:10492000CCF81820DCF8182007F1804702F00102CB
:10493000019207F5803706F0030A019A4FEA8A0AC6
:10494000BA680EFA0AFB22EA0B0B3D4A904269D084
:1049500002F58062904267D002F58062904265D095
:1049600002F58062904263D002F58062904261D08D
:1049700002F58062904214BF0622052202FA0AF272
:1049800042EA0B02BA609A6819F4801F14BF2A43E6
:10499000AA439A60DA6819F4001F14BF2A43AA4395
:1049A000DA605A6819F4003F14BF2A43AA435A60D8
:1049B0001A6819F4803F14BF2A43AA431A600136CB
:1049C0006FE7DFF880904A450DD015D8A9F580191A
:1049D0004A4508D009F570294A4504D0A9F580193F
:1049E0004A457FF47FAF8A68D2B1012A4FF00804AC
:1049F0000CBF0761476175E7DFF84C904A45F2D07C
:104A000009F58039ECE7CC686CE7CC68043469E7D9
:104A1000CC68083466E7CC680C3463E7002461E7AF
:104A200004245FE70022A9E70122A7E70222A5E705
:104A30000322A3E70422A1E7001002400004014082
:104A4000000801400000221000003110806808407A
:104A5000003818BF012070470AB10161704709048E
:104A6000FBE7C36801EA030221EA030141EA0241CC
:104A700001617047044A08B55169014202D0506192
:104A8000FFF760FA08BD00BF0004014007490302B8
:104A9000CA6803F4E06322F4E0621204120C1343C8
:104AA00043F0BF6343F40033CB60704700ED00E098
:104AB000154B30B5DC68C4F30224C4F10703251D8F
:104AC000042B28BF0423062D4FF0FF3594BF00248C
:104AD000033C05FA03F321EA0303A54022EA050299
:104AE000A340002843EA0203ACBF00F16040074A3C
:104AF0004FEA0313DBB2ABBF00F5614000F00F00DB
:104B000080F80033135430BD00ED00E014ED00E0F8
:104B1000002807DB01234109034A00F01F008340FE
:104B200042F82130704700BF00E100E00138B0F1E9
:104B3000807F0BD24FF0E023F021054A586182F8C4
:104B400023100020072298611A61704701207047E6
:104B500000ED00E0114AD36813F0100305D01049AE
:104B6000CB6943F00203CB611023D268500706D50E
:104B70000B4943F00403CA6942F00102CA61074AC3
:104B8000D169C90708D50648C16941F00401C1616E
:104B9000D16921F00101D161D3607047002002404A
:104BA00050050020064B186910F0800007D0054A18
:104BB0005A6002F188325A601869C0F3C010704719
:104BC0000020024023016745034A0020136943F097
:104BD00080031361704700BF0020024070B5054696
:104BE000FFF7DEF90646114CE368D80712D4E368F4
:104BF000990644BF2023E360E368DA0606D4E3693C
:104C0000DB0703D4E06810F0040007D0FFF7A2FF31
:104C1000012003E06B1CE7D00DB9032070BDFFF746
:104C2000BFF9801BA842DFD9F7E700BF0020024090
:104C30002DE9F84FDFF894A01F469AF81830054682
:104C4000012B884691463FD001234CF250308AF820
:104C50001830FFF7C3FF90BB012D03D0022D14BF06
:104C60000425022500263346DFF864B03401C4F180
:104C70002001A4F1200207FA01F129FA04F4CAF88C
:104C80001C300C4327FA02F21443DBF81020A4B2C4
:104C900042F00102CBF810204CF2503028F81640B8
:104CA000FFF79CFFDBF8102022F00102CBF8102068
:104CB00028B90136F2B295424FF00003D6D800234E
:104CC0008AF81830BDE8F88F0220FBE75005002075
:104CD000002002400022064BDA61064B1A6942F0BE
:104CE00002021A6158611A6942F040021A61704763
:104CF00050050020002002402DE9F041264F0546D6
:104D00003B7E8846012B44D001243C7603684CF25C
:104D10005030022B1AD1FFF761FF20B10120002390
:104D20003B76BDE8F0811D4CF86123694CF25030B0
:104D300043F004032361236943F040032361FFF739
:104D40004DFF236923F004032361E8E7FFF746FFE3
:104D50000028E3D14FF0FF33C8F800302046AE689A
:104D60000E4CD5E9023203EBC223B342D7D9304609
:104D7000FFF7B0FF4CF25030FFF730FF236923F00C
:104D80000203236110B1C8F80060C8E706F50066A9
:104D9000E7E70220C5E700BF5005002000200240E1
:104DA00090F821200346022A06D0042282630120C3
:104DB000002283F8202070470268C06B116821F040
:104DC0000E011160116821F00101116001211A6CBE
:104DD00001FA02F24260002083F82110E8E70000A7
:104DE00008B590F82130022B03D0042383630120FF
:104DF00008BD03681A6822F00E021A601A6822F0D1
:104E000001021A60284A934224D902F56272934241
:104E100019D01432934218D01432934217D014325E
:104E2000934214BF4FF480334FF480531F4A5360B2
:104E3000012380F82130002380F82030436B03B138
:104E400098470020D4E70123F0E71023EEE74FF462
:104E50008073EBE716498B4216D014318B4215D084
:104E600014318B4214D014318B4214D014318B4244
:104E700014D014318B4214D0934214BF4FF48033BA
:104E80004FF080730B4AD2E70123FBE71023F9E7C9
:104E90004FF48073F6E74FF48053F3E74FF4803319
:104EA000F0E74FF48013EDE7800002400004024079
:104EB0000800024000000240036A026A70B522F056
:104EC00001020262446882690D6822F073022A437B
:104ED0008D6823F002032B430C4DA84203D005F547
:104EE0000065A8420BD1CD6823F008032B4324F4BE
:104EF0004074D1E90556354323F004032C43446044
:104F000082614A684263036270BD00BF002C0140A9
:104F1000036A026A70B522F4807202624468C26950
:104F20000D6822F073022A438D6823F4007343EA6C
:104F300005230D4DA84203D005F50065A8420DD10B
:104F4000CD6823F4006343EA052324F44054D1E9F7
:104F50000556354323F4806344EA05144460C26176
:104F60004A68C263036270BD002C0140036A026A92
:104F700030B522F4805202624468C2690D6822F49E
:104F8000E64242EA05228D6823F4005343EA0533E2
:104F9000084DA84203D005F50065A84204D14D692B
:104FA00024F4804444EA85144460C2614A6802647F
:104FB000036230BD002C01407047034630B590F8C5
:104FC0003E0093F83F2093F8425093F84340C0B21C
:104FD000D2B2EDB2E4B2B9B9012844D1012D12D157
:104FE000022283F83E2083F842201B681A6A22F0CE
:104FF00001021A621A6A42F0010200201A621A685B
:1050000042F001021A6030BD042911D1012A2AD1CF
:10501000012C28D1022283F83F2083F843201B680B
:105020001A6A22F010021A621A6A42F01002E4E7C9
:10503000012818D1012AE6D1012DE4D1012CE2D1B9
:10504000022283F83E2083F83F2083F8422083F831
:1050500043201B681A6A22F001021A621A6A42F09F
:1050600001021A62DCE70120CDE700001D4A036857
:10507000904212D002F5006290420ED0B0F1804F03
:105080000BD0A2F59832904207D002F58062904290
:1050900003D002F58062904207D14A6823F0700382
:1050A0001343CA6823F4407313434A6923F080030F
:1050B000134303608B68C3620B688362094B984299
:1050C00003D003F50063984201D10B690363012308
:1050D00043610369DB0742BF036923F001030361F6
:1050E000704700BF002C014010B5044630B390F863
:1050F0003D3003F0FF021BB980F83C20FFF75CFF56
:105100000223206884F83D30211DFFF7AFFF012303
:10511000002084F8463084F83E3084F83F3084F82C
:10512000403084F8413084F8423084F8433084F8C9
:10513000443084F8453084F83D3010BD0120FCE750
:10514000F8B50D46044600284CD090F83D3003F0E9
:10515000FF021BB980F83C20FCF74EF902232146E0
:1051600084F83D3051F8040B836823F4804323F026
:1051700007038360FFF77AFF81682A688369AE6955
:105180001143AA6823F4407323F0030342EA062282
:105190001A432B69EE691B0143EA0623EE6822F4E9
:1051A0007C4233432E6A22F0FC0243EA0633076A4C
:1051B0006E6913436A6827F0220742EA061281608B
:1051C0001743836101230762002084F8463084F886
:1051D0003E3084F83F3084F8423084F8433084F81D
:1051E0003D30F8BD0120FCE7036A026A70B522F089
:1051F00010020262446882690D6822F4E64242EAC3
:1052000005228D6823F0200343EA05130D4DA842C3
:1052100003D005F50065A8420DD1CD6823F08003C9
:1052200043EA051324F44064D1E90556354323F0DD
:10523000400344EA8504446082614A6882630362F1
:1052400070BD00BF002C014038B590F83C300446DA
:10525000012B4FD00120082A84F83C003AD006D810
:10526000BAB1042A26D0002384F83C3038BD0C2A79
:10527000F9D12068FFF77AFEC3690A6943F4006335
:10528000C361C36923F48063C361C36943EA022332
:105290002EE02068FFF710FE83690A6943F00803D7
:1052A0008361836923F0040383618369134383610A
:1052B0000020D8E72068FFF797FF83690A6943F465
:1052C00000638361836923F480638361836943EAB4
:1052D0000223ECE72068FFF71BFEC3690A6943F06D
:1052E0000803C361C36923F00403C361C3691343A3
:1052F000C361DDE70220B9E710B50124036A01F0BC
:105300001F018C4023EA04030362036A8A401A43A4
:10531000026210BD08B529B990F83E30012B1ED0AD
:10532000012034E0042907D190F83F30012BF7D158
:10533000022380F83F3015E008290CBF90F8403078
:1053400090F84130013B18BF0123002BE8D1022324
:1053500008290CBF80F8403080F8413002E0022379
:1053600080F83E3000680122FFF7C6FF124B9842DA
:1053700003D003F5006398420AD1436C43F4004321
:105380004364836803F00703062B0FD1002008BD98
:10539000B0F1804FF5D0094B9842F2D003F580630D
:1053A0009842EED003F580639842EAD0036843F058
:1053B00001030360EAE700BF002C01400004004045
:1053C000FFF7A8BF026802F10C0353E8003F23F483
:1053D00090730C3242E8003102680029F2D102F1E8
:1053E000140353E8003F23F0010302F1140C4CE8CE
:1053F00000310029F3D1036B012B0BD102F10C0317
:1054000053E8003F23F0100302F10C0C4CE800318C
:105410000029F3D1202380F8423000230363704732
:1054200010B504460368C1681A6922F440520A4361
:105430001A6182680069D9680243606921F4B05139
:1054400021F00C0102430A43DA605A69A16922F48F
:1054500040720A435A610E4A934215D1FFF79AF9F6
:1054600019234343626820689200B3FBF2F364227D
:10547000B3FBF2F102FB11331B013233B3FBF2F346
:1054800003EB0113836010BDFFF774F9E8E700BF79
:1054900000380140F7B505460C4617461E462A68F7
:1054A000136834EA030301D1002021E0701CF7D017
:1054B000FEF776FDC01B86421CD3DEB12B68DA688E
:1054C0005107ECD5802CEAD0402CE8D01A6812079E
:1054D000E5D5002401941A68284601925B6801937F
:1054E000019BFFF76FFF082301206B6485F84040A4
:1054F00003B0F0BD0320FBE710B5044648B390F8B5
:10550000413003F0FF021BB980F84020FBF7E6FFB3
:105510002423226884F84130D368204623F40053C2
:10552000D360FFF77DFF236800201A6922F49042C0
:105530001A615A6922F02A025A61DA6842F400526A
:10554000DA602023606484F8413084F8423060637C
:1055500010BD0120FCE72DE9F843984690F8413052
:105560000446202B0E4617463FD100293FD0002A83
:105570003DD021230025456480F84130FEF710FD21
:10558000A3688146B3F5805FA784E78403D12369CC
:105590000BB935461E46E38C9BB253B943464A4687
:1055A00040212046FFF776FF202350B984F8413090
:1055B0000AE043464A4680212046FFF76BFF28B1A8
:1055C0002023032084F84130BDE8F88322684EB9D7
:1055D00035F8023BC3F308035360E18C013989B20B
:1055E000E184D8E716F8013BF6E70220ECE701205A
:1055F000EAE77047704708B50023406AC385C38453
:10560000FFF7F8FF08BD704790F8423007B5222B2E
:1056100042D181680268B1F5805F836A3FD1016938
:1056200000293FD15268C2F3080223F8022B83629B
:10563000C38D013B9BB2C385002B2DD10268D1687D
:1056400021F02001D160D16821F48071D1605169CD
:1056500021F001015161202280F842204363026B56
:10566000012A026828D1036302F10C0353E8003FCA
:1056700023F0100302F10C0C4CE800310029F3D1A7
:105680001368DB0605D501911368019353680193F4
:10569000019B818DFFF7B7FF03B05DF804FB39B9BB
:1056A000016929B95268D2B21A70836A0133BEE720
:1056B000526802F07F02F7E7FEF75AFCECE70000C1
:1056C000036873B51A6804461607D9685D6908D17E
:1056D000960668D58D0666D502B0BDE87040FFF726
:1056E00093BF05F0010001F4907505435BD0D60728
:1056F00005D5CD0542BF636C43F0010363645307D6
:1057000004D518B1636C43F002036364960704D5B3
:1057100018B1636C43F004036364150707D501F007
:10572000200303431EBF636C43F008036364636C90
:10573000002B32D0920604D58B0602D52046FFF707
:1057400063FF266820467369626C03F0400302F031
:10575000080253EA020522D0FFF734FE73695E06A1
:1057600018D5226802F1140353E8003F23F04003E8
:10577000143242E800310029F3D1E06B50B1744B90
:105780004363FFF72DFB40B1E06B436B02B0BDE814
:10579000704018472046FFF72DFF02B070BDFFF79D
:1057A00029FF6564F9E7206B012840F09480D50655
:1057B00040F19180C80640F18E80002201921A6863
:1057C00001925A680192019A5A6952064DD5E16BCD
:1057D0000A68526892B2002ADFD0A08D9042DCD9CC
:1057E000E2858A69202A36D003F10C0252E8002FA4
:1057F00022F4807203F10C0040E800210029F3D16B
:1058000003F1140252E8002F22F0010203F1140008
:1058100040E800210029F3D103F1140252E8002FDF
:1058200022F0400203F1140040E800210029F3D1E6
:10583000202284F84220216303F10C0252E8002F59
:1058400022F0100203F10C0040E800210029F3D1FE
:10585000E06BFFF7A5FA02236363E38DA18DC91AFC
:1058600089B22046FFF7CFFE97E7E28DE18D92B235
:1058700089B2002991D0A18D891A89B200298CD0D2
:1058800003F10C0252E8002F22F4907203F10C0590
:1058900045E800200028F3D103F1140252E8002F5C
:1058A00022F0010203F1140545E800200028F3D19D
:1058B000202284F84220206303F10C0252E8002FDA
:1058C00022F0100203F10C0545E800200028F3D176
:1058D00002236363C5E7160628D50D0626D594F87E
:1058E0004120212A7FF459AFA168226AB1F5805F77
:1058F00017D12169A9B932F8021BC1F30801596017
:105900002262E28C013A92B2E284002A7FF445AF2F
:10591000DA6822F08002DA60DA6842F04002DA6087
:105920003BE7511C216212785A60EAE750067FF586
:1059300034AF4A067FF531AFDA68204622F04002E4
:10594000DA60202384F84130FFF753FE25E700BFDB
:10595000F75500080023C28543642223828502692B
:1059600080F84230816203681AB1DA6842F48072CA
:10597000DA605A69002042F001025A61DA6842F0A6
:105980002002DA60704770B590F84260202E07D18F
:1059900041B13AB100240463FFF7DCFF204670BD3B
:1059A0000220FCE70120FAE7F7B5002604460D4681
:1059B0000196FEF7F5FA236807469A68D10508D5DF
:1059C0000120A36A84F8246043F02003A36203B09B
:1059D000F0BD5A68D20503D4DB6A13F4700F3DD0D2
:1059E0003D4B02201E68FEF7E5FE23683B4A19691D
:1059F000B6FBF0F611423A4A51D1D868394908420B
:105A00004DD1196911425BD1DA68374B1A420CBF8C
:105A1000142329235E43019BB34223D26A1C04D082
:105A2000002D53D1019BB3420AD3019B0133019353
:105A3000F1E76E1C13D065B923681B6898070DD475
:105A4000A36A032043F00403A362002384F82430F4
:105A5000BDE7FEF7A5FAC01BA842EDD8226813687F
:105A60009907E6D56FF0120322681360A36A43F426
:105A70000073A362936803F46023B3F5602F0CD125
:105A8000237B53B9A36A23F48073A362A36ADB0464
:105A900003D4A36A43F00103A362002097E71969C6
:105AA000114203D1D968104A11420BD019690F4A2B
:105AB000114209D1DB6813420CBF5423FC23A9E730
:105AC0002923A7E75423A5E7FC23A3E7FEF768FAF9
:105AD000C01BA842A6D8A8E70000002024499224B1
